:020000040000fa
:080000000002040000000000f2
:020000040000fa
:040008000c070000e1
:020000040000fa
:04000c00c802000026
:020000040000fa
:04001000da02000010
:020000040000fa
:04001400d002000016
:020000040000fa
:04001800e202000000
:020000040000fa
:04001c000c070000cd
:020000040000fa
:040020000c070000c9
:020000040000fa
:040024000c070000c5
:020000040000fa
:040028000c070000c1
:020000040000fa
:04002c000c070000bd
:020000040000fa
:040030000c070000b9
:020000040000fa
:040034006004000064
:020000040000fa
:040038000c070000b1
:020000040000fa
:04003c000c070000ad
:020000040000fa
:040040000c070000a9
:020000040000fa
:040044008e04000026
:020000040000fa
:040048000c070000a1
:020000040000fa
:04004c000c0700009d
:020000040000fa
:040050000c07000099
:020000040000fa
:040054004003000065
:020000040000fa
:04005800ea020000b8
:020000040000fa
:04005c000c0700008d
:020000040000fa
:040060000c07000089
:020000040000fa
:040064000c07000085
:020000040000fa
:040068000c07000081
:020000040000fa
:04006c00bc040000d0
:020000040000fa
:040070000c07000079
:020000040000fa
:040074000c07000075
:020000040000fa
:040078000c07000071
:020000040000fa
:04007c000c0700006d
:020000040000fa
:040080000c07000069
:020000040000fa
:040084000c07000065
:020000040000fa
:040088000c07000061
:020000040000fa
:04008c000c0700005d
:020000040000fa
:040090000c07000059
:020000040000fa
:040094000c07000055
:020000040000fa
:040098000c07000051
:020000040000fa
:04009c000c0700004d
:020000040000fa
:0400a0000404000054
:020000040000fa
:0400a400ae030000a7
:020000040000fa
:0400a8000c07000041
:020000040000fa
:0400ac000c0700003d
:020000040000fa
:0400b0000c07000039
:020000040000fa
:0400b4000c07000035
:020000040000fa
:0400b8000c07000031
:020000040000fa
:0400bc000c0700002d
:020000040000fa
:0400c0000c07000029
:020000040000fa
:0400c4000c07000025
:020000040000fa
:0400c8000c07000021
:020000040000fa
:0400cc000c0700001d
:020000040000fa
:0400d0000c07000019
:020000040000fa
:0400d4000c07000015
:020000040000fa
:0400d8000c07000011
:020000040000fa
:0400dc000c0700000d
:020000040000fa
:0400e0000c07000009
:020000040000fa
:0400e4000c07000005
:020000040000fa
:0400e8000c07000001
:020000040000fa
:0400ec000c070000fd
:020000040000fa
:0400f0000c070000f9
:020000040000fa
:0400f4000c070000f5
:020000040000fa
:0400f8000c070000f1
:020000040000fa
:0400fc000c070000ed
:020000040000fa
:040100000c070000e8
:020000040000fa
:040104000c070000e4
:020000040000fa
:040108000c070000e0
:020000040000fa
:04010c000c070000dc
:020000040000fa
:040110000c070000d8
:020000040000fa
:040114000c070000d4
:020000040000fa
:040118000c070000d0
:020000040000fa
:04011c000c070000cc
:020000040000fa
:040120000c070000c8
:020000040000fa
:040124000c070000c4
:020000040000fa
:040128000c070000c0
:020000040000fa
:04012c009803000034
:020000040000fa
:040130004a0400007d
:020000040000fa
:040134000c070000b4
:020000040000fa
:040138000c070000b0
:020000040000fa
:04013c000c070000ac
:020000040000fa
:040140000c070000a8
:020000040000fa
:040144000c070000a4
:020000040000fa
:040148000c070000a0
:020000040000fa
:04014c000c0700009c
:020000040000fa
:040150000c07000098
:020000040000fa
:040154000c07000094
:020000040000fa
:040158000c07000090
:020000040000fa
:04015c000c0700008c
:020000040000fa
:040160000c07000088
:020000040000fa
:040164000c07000084
:020000040000fa
:040168000c07000080
:020000040000fa
:04016c000c0700007c
:020000040000fa
:040170000c07000078
:020000040000fa
:040174000c07000074
:020000040000fa
:040178000c07000070
:020000040000fa
:04017c000c0700006c
:020000040000fa
:040180000c07000068
:020000040000fa
:040208000c070000df
:020000040000fa
:04020c00c802000024
:020000040000fa
:04021000da0200000e
:020000040000fa
:04021400d002000014
:020000040000fa
:04021800e2020000fe
:020000040000fa
:04021c000c070000cb
:020000040000fa
:040220000c070000c7
:020000040000fa
:040224000c070000c3
:020000040000fa
:040228000c070000bf
:020000040000fa
:04022c000c070000bb
:020000040000fa
:040230000c070000b7
:020000040000fa
:040234006004000062
:020000040000fa
:040238000c070000af
:020000040000fa
:04023c000c070000ab
:020000040000fa
:040240000c070000a7
:020000040000fa
:040244008e04000024
:020000040000fa
:040248000c0700009f
:020000040000fa
:04024c000c0700009b
:020000040000fa
:040250000c07000097
:020000040000fa
:040254004003000063
:020000040000fa
:04025800ea020000b6
:020000040000fa
:04025c000c0700008b
:020000040000fa
:040260000c07000087
:020000040000fa
:040264000c07000083
:020000040000fa
:040268000c0700007f
:020000040000fa
:04026c00bc040000ce
:020000040000fa
:040270000c07000077
:020000040000fa
:040274000c07000073
:020000040000fa
:040278000c0700006f
:020000040000fa
:04027c000c0700006b
:020000040000fa
:040280000c07000067
:020000040000fa
:040284000c07000063
:020000040000fa
:040288000c0700005f
:020000040000fa
:04028c000c0700005b
:020000040000fa
:040290000c07000057
:020000040000fa
:040294000c07000053
:020000040000fa
:040298000c0700004f
:020000040000fa
:04029c000c0700004b
:020000040000fa
:0402a0000404000052
:020000040000fa
:0402a400ae030000a5
:020000040000fa
:0402a8000c0700003f
:020000040000fa
:0402ac000c0700003b
:020000040000fa
:0402b0000c07000037
:020000040000fa
:0402b4000c07000033
:020000040000fa
:0402b8000c0700002f
:020000040000fa
:0402bc000c0700002b
:020000040000fa
:0402c0000c07000027
:020000040000fa
:0402c4000c07000023
:020000040000fa
:0402c8000c0700001f
:020000040000fa
:0402cc000c0700001b
:020000040000fa
:0402d0000c07000017
:020000040000fa
:0402d4000c07000013
:020000040000fa
:0402d8000c0700000f
:020000040000fa
:0402dc000c0700000b
:020000040000fa
:0402e0000c07000007
:020000040000fa
:0402e4000c07000003
:020000040000fa
:0402e8000c070000ff
:020000040000fa
:0402ec000c070000fb
:020000040000fa
:0402f0000c070000f7
:020000040000fa
:0402f4000c070000f3
:020000040000fa
:0402f8000c070000ef
:020000040000fa
:0402fc000c070000eb
:020000040000fa
:040300000c070000e6
:020000040000fa
:040304000c070000e2
:020000040000fa
:040308000c070000de
:020000040000fa
:04030c000c070000da
:020000040000fa
:040310000c070000d6
:020000040000fa
:040314000c070000d2
:020000040000fa
:040318000c070000ce
:020000040000fa
:04031c000c070000ca
:020000040000fa
:040320000c070000c6
:020000040000fa
:040324000c070000c2
:020000040000fa
:040328000c070000be
:020000040000fa
:04032c009803000032
:020000040000fa
:040330004a0400007b
:020000040000fa
:040334000c070000b2
:020000040000fa
:040338000c070000ae
:020000040000fa
:04033c000c070000aa
:020000040000fa
:040340000c070000a6
:020000040000fa
:040344000c070000a2
:020000040000fa
:040348000c0700009e
:020000040000fa
:04034c000c0700009a
:020000040000fa
:040350000c07000096
:020000040000fa
:040354000c07000092
:020000040000fa
:040358000c0700008e
:020000040000fa
:04035c000c0700008a
:020000040000fa
:040360000c07000086
:020000040000fa
:040364000c07000082
:020000040000fa
:040368000c0700007e
:020000040000fa
:04036c000c0700007a
:020000040000fa
:040370000c07000076
:020000040000fa
:040374000c07000072
:020000040000fa
:040378000c0700006e
:020000040000fa
:04037c000c0700006a
:020000040000fa
:040380000c07000066
:020000040000fa
:100400004fc720000e7f22000e0188000000000070
:10041000000020000000e000020032000001200087
:1004200020028800140007007d0207000000e000a1
:1004300003003a00008a210001002000020037007a
:100440000000200001002000810f70000100320038
:1004500014000700000020000000e000020032004d
:100460000000020000000000041302000000000071
:100470000040da000000fe004440a9008000200097
:100480000000e0000300320000002000a00188000e
:100490004440a800000006008a1f78008b1f7800e7
:1004a0000000060091018800800478000000eb0045
:1004b0001a003700e284440032a0b4009905ba0063
:1004c000e284440032a0b4009906ba00e2844400f9
:1004d00032a0b4000006eb00476fde00fd07b2005b
:1004e000636ce10003003a00ebff07000000eb0043
:1004f0000a003700606ce10004003a00005deb0088
:100500008b05e900fdff3e00040037006168e10053
:10051000010032000086eb000b00070019c7ba008b
:100520001905ba000e04e00003003a000a00e000da
:10053000e0ff3a0000000600fe07b2009e018800be
:100540008a047800f5ff3700395dba008b05e900b1
:100550000c003200295dba008b05e900080032006a
:100560000c00e00003003a00e284440032a0b40032
:10057000f5ff370019ddba008b05e900faff3a00f4
:100580008904e800e184440032a0b40000000600c1
:100590003600f8008020a9000000eb00a70b070040
:1005a0003600f800a90b07008040a90010002000c9
:1005b000a20b07003600f8008060a9002000200090
:1005c0009e0b07003600f8008080a9003000200054
:1005d0009a0b0700809fbe000000fa00f1578000d0
:1005e00000202000008060000000e00002003200d7
:1005f0009580a9001f0037008580a90018003700ea
:10060000e0578000104078000080fb002011880037
:10061000e05780000000e800e0578800e1578000c4
:1006200080b02000808f500002003a0000b020000f
:10063000e0578800f05780000080a100f057880044
:10064000e1578000d0578000808f500004003a00ae
:10065000f05780000090a000f05788000500370098
:100660001111800000202000008060000000e000e8
:10067000e3ff32000080fa004f00be000040060099
:100680003600f800809fbe00829fbe00849fbe009f
:10069000869fbe000000fa0018003700b0578000a7
:1006a000311180008140780001487800b057800007
:1006b0000000e800b0578800b157800070c02000eb
:1006c000808f500002003a0080b02000b0578800b0
:1006d000f05780000010a100f0578800b15780004b
:1006e000c0578000808f500004003a00f05780000f
:1006f0000000a000f05788000400370010118000af
:10070000610060000000e000e4ff3a001e0b0700fb
:100710008560a9000080fa004f03be004f02be00b2
:100720004f01be004f00be003600f9000040060039
:10073000801f78000000fa00101180006200600045
:100740000000e000010032002222a9008c20a90054
:100750000080fa004f00780000400600809fbe0035
:100760000000fa00a14e8000002020000080600000
:100770000000e0000200320097e0a9001f003700ef
:1007800087e0a90018003700904e800010407800e4
:100790000080fb00a0118800904e80000000e8005f
:1007a000904e8800914e800050ad2000808f500008
:1007b00002003a00609d2000904e8800a04e80000c
:1007c0000080a100a04e8800914e8000804e8000e5
:1007d000808f500004003a00a04e80000090a000de
:1007e000a04e8800050037009111800000202000f5
:1007f000008060000000e000e3ff32000080fa00ab
:100800004f00be0000400600809fbe000000fa00be
:1008100018003700604e8000b111800081407800e0
:1008200001487800604e80000000e800604e8800bb
:10083000614e800050af2000808f500002003a00cf
:1008400050ad2000604e8800a04e80000010a10036
:10085000a04e8800614e8000704e8000808f500056
:1008600004003a00a04e80000000a000a04e8800c6
:100870000400370090118000610060000000e0007b
:10088000e4ff3a0087c0a9000080fa004f00be00d4
:1008900000400600801f78000000fa0090118000e0
:1008a000620060000000e000010032003222a90076
:1008b0008c40a9000080fa004f007800004006003c
:1008c0003600f800809fbe00829fbe00849fbe005d
:1008d000869fbe000000fa00c0070700f0c6200097
:1008e000104078008040e800f0c620000148780001
:1008f000e0c6200011c0b300014878008460a90060
:100900000080fa004f03be004f02be004f01be0040
:100910004f00be003600f900004006003600f80027
:10092000809fbe00829fbe00849fbe00869fbe0047
:100930000000fa008f0a070010c72000104078005e
:100940008040e80010c720000148780000c7200060
:1009500011c0b3000148780084e0a9000080fa00cb
:100960004f03be004f02be004f01be004f00be004d
:100970003600f900004006003600f800809fbe00f7
:10098000829fbe00849fbe00869fbe000000fa00ca
:100990008620a9004110800000082000008060002f
:1009a0000000e0000800320008e2a9000828ef007b
:1009b00070408000200090008000eb00010878006b
:1009c0000e28ef000d013700404080008000eb0052
:1009d000b200200003002000820f5000838f5800d7
:1009e000fc003e00006001000b00370039003700ba
:1009f000750037009c003700f3003700c80037004f
:100a0000d9003700f0003700db003700f100370075
:100a10003400370050003700008020002000900094
:100a2000620060000000e000f3003a000080200057
:100a3000100090007040880000802000100090009e
:100a4000104078000ae8b7000080200010009000f5
:100a5000100090006040880000802000100090008e
:100a6000e600400000802000110098000080200077
:100a70009000900060c52000808f500003003a0075
:100a80000080200001c52000110098000080200097
:100a9000a00090000100a10021009800008020002b
:100aa000900090000080200010007800808f50009f
:100ab00004003a0000802000a00090000110a00077
:100ac000210098000602a800200020004040880075
:100ad000ca0037000622a8002000200040408800fd
:100ae000c600370041108000000028000080600030
:100af0000000e0000800320000802000604090000c
:100b00008040e80000802000614098004000200004
:100b10003b050700b9003700804080008000d1000d
:100b2000f00f2000008060001010880080408000de
:100b300061006000004078000004e0000300320023
:100b4000b000200040408800ac003700300020009a
:100b500040408800a90037004110800000002800b4
:100b6000008060000000e0000800320000802000eb
:100b7000604090008040e8000080200061409800c4
:100b8000400020001e0507009c0037000622a80038
:100b9000804080004800de00e6006000000f20007a
:100ba0000100700080408800804080000000a000ac
:100bb0008040880010c0b30012e8b7002000200079
:100bc000404088008d00370012c8bf00e14f500040
:100bd0000a003200604080001000780080408800e9
:100be0006040800020009000a040880060408000ad
:100bf0002040900016e8b700010037001268ef00af
:100c000081408000f00f2000808f500009003600e6
:100c1000804080004800de00e6006000000f2000f9
:100c20000100700010108800a000200040408800e3
:100c300072003700804080001010880080408000e3
:100c400061006000004078000004e0000300320012
:100c5000500020004040880068003700300020002d
:100c600040408800650037004110800000002800e7
:100c7000008060000000e0000900320000802000d9
:100c8000604090008040e8000080200061409800b3
:100c900009e2a90050002000d904070057003700de
:100ca00016c8bf008080fb008100e900cf08de008d
:100cb000814078000040e90016e8b7000104e00038
:100cc00010003200604080006600400060408800f4
:100cd0000ac8bf000040e9000ae8b7000ac8bf0020
:100ce0000004e00003003a0020002000c4040700d4
:100cf000420037000622a800200020004040880063
:100d00003e003700a0408000904078008180fb00ca
:100d1000111088000000e800a0408800370037006c
:100d20004110800000002800008060000000e0000a
:100d30000900320000802000604090008040e80000
:100d4000008020006140980040002000ac040700b3
:100d500009e2a900290037000662a80080002000ef
:100d60004040880025003700800020004040880077
:100d70000662a80021003700a0408000011080001a
:100d800081407800014878000000e800a040880019
:100d900016c8bf000040e90016e8b70016c8bf003b
:100da0000004e0000400320006a2a9006000200058
:100db000404088000200370006a2a8007f04070018
:100dc0000682a8000d003700200020008c040700d8
:100dd0000a00370000802000604090008040e8005a
:100de000008020006140980060002000840407001b
:100df0000000000001003700000000000080fa0041
:100e00004f03be004f02be004f01be004f00be00a8
:100e10003600f900004006000040da000000fe0045
:100e2000000005008001780002003700b159780009
:100e30000201e9000200e000fcff3a0000000600a9
:020000040000fa
:100e4000486500006c6c00006f2100000a00000083
:020000040000fa
:100e50000000fa0022c8bf000040e80022e8b70006
:100e600022c8bf000004e00002003a0010c0b30036
:100e700022e8b70022c8bf000080fa000000060088
:100e80000000fa00304180000000e8003041880096
:100e90000080fa00000006000200fa002428ef009b
:100ea00019040700450107000004a2000004e00047
:100eb000020032000040eb00180037000000eb0099
:100ec000000f78000b00370081c020001e00780062
:100ed0004300dd0000804000120007000004a20073
:100ee0000004e00007003a001e00e80020418800ee
:100ef0001e0fe8001e007800e40f5000f2ff3400df
:100f000001003700000000002141800010c0b30044
:100f10000100e00001003c000040eb000080fa000e
:100f2000000006002200fa00001798002628ef00b3
:100f300034003700490107000004e00031003200ae
:100f4000010220000e0078006d0107000004a200dd
:100f50000004e0001e003a009e407800e0c7b300a5
:100f600080cf50001c003a00be40900080c8b30003
:100f700080cf50001a003a00de409000e0c4b30079
:100f800080cf500018003a00ee40900040c4b300fb
:100f900080cf500016003a007e4090000004e00030
:100fa00015003a009e407800e0c7b30080cf5000a3
:100fb00013003a006a004700820020008000780099
:100fc0000e10900097ff070010c0b300120037000a
:100fd000000000000b00370000000000090037008f
:100fe0000000000007003700000000000500370087
:100ff000000000000300370000000000010037007f
:10100000000000003141800070382100808f5000c6
:10101000c8ff34000040eb000080fa00000006002a
:101020001c00fa00400f9800510f98005e089000d5
:101030006e00400020079800e0c7b30060479800aa
:101040002e0090004880de00004078007047980035
:101050002e00900000407800004f980000c1b300bf
:10106000104f980010c0b300204f98000040eb00d4
:10107000304f98000040eb00404f98000040eb00dc
:10108000504f98000040eb00604f98000040eb008c
:10109000704f98000040eb000057980000c0eb0034
:1010a0001057980000c0eb002057980000c0eb00dc
:1010b00030579800e0cfb3004057980010c0b300fd
:1010c000505798000040eb006057980000c0eb00bc
:1010d000004f78003000200010079800090037000a
:1010e000e60047001e00900000804000104078009d
:1010f0009e40780000cf50001e0090000000e800e5
:10110000100798001e009000f00f5000f4ff36000a
:101110000000eb0010079800090037001e00900047
:10112000ce08900000804000104078009e4078007b
:1011300000cf50001e0090000000e800100798004b
:101140009e0090005e089000808f5000f3ff3900f1
:101150000000000021030700de089000810f50000e
:10116000fcff36006600470011012000b9020700ad
:10117000de0890004e089000b60207001e4078007e
:10118000990207000080fa00000006001600fa002d
:10119000100f9800210f98000000eb00000f78005e
:1011a0001500370081c020001e0078004300dd00dc
:1011b000008040002e0990009e0890001400070057
:1011c0002628ef0007003700a40007000004e00015
:1011d000040032000e80e80001012000c800070072
:1011e0000400370031418000703e2000808f5000a5
:1011f000f5ff34001e0fe800204180009e007800bb
:10120000808f5000e7ff35000080fa0000000600e4
:101210001e00fa00400f9800510f9800620f9800ce
:101220006e0890006e00400020079800e0c7b300f1
:10123000604798002e0090004880de000040780053
:10124000704798002e00900000407800004f9800f2
:1012500000c1b300104f9800fdfe0700204f98001a
:101260004e08900010407800304f98004e089000d3
:101270000000e80010407800404f98004e089000b1
:101280000080e80010407800504f98004e08900011
:101290006300400010407800604f98004e089000b6
:1012a0006400400010407800704f98004e08900095
:1012b0006500400010407800005798004e089000ec
:1012c0006600400010407800105798004e089000cb
:1012d00067004000104078002057980000c0eb00e5
:1012e00030579800e0cfb300405798000040eb0023
:1012f0005057980010c0b3006057980000c0eb0032
:10130000004f7800300020001007980009003700d7
:10131000e60047001e00900000804000104078006a
:101320009e40780000cf50001e0090000000e800b2
:10133000100798001e009000f00f5000f4ff3600d8
:101340000000eb0010079800090037001e00900015
:10135000de08900000804000104078009e40780039
:1013600000cf50001e0090000000e8001007980019
:101370009e0090006e089000808f5000f3ff3900af
:101380000000000095020700ee089000810f500059
:10139000fcff360066004700110120002d02070007
:1013a000ee0890005e0890002a0207001e407800b8
:1013b0000d0207000080fa00000006000c00fa0091
:1013c000e0c7b300404798000040eb00504798004a
:1013d00040c0b3006047980080c0b30070479800d9
:1013e0009bfe0700004f9800e0c4b300104f980028
:1013f00040c4b300204f980000c0eb00004f7800bd
:10140000300020001007980009003700e400470072
:101410001e00900000804000104078009e40780040
:1014200000cf50001e0090000000e8001007980058
:101430001e009000e60f5000f4ff360064004700e5
:1014400071002000030207001e407800e60107003b
:1014500010c0b3000080fa00000006000400fa008b
:10146000881f7800750207000004e00002003200c7
:101470000040eb001f0037000000eb002c020700cb
:10148000e1c7b300814f500003003200a101070003
:101490000040eb001700370084020700000f7800bf
:1014a0001e007800e20f500002003e000040eb00fa
:1014b00010003700100020001d0207000080fb0014
:1014c0004804dd0020002000190207000080fb0016
:1014d00000004400100798001e00900064004000c7
:1014e0009e0f5000020036000040eb000100370064
:1014f00010c0b3004f0478000080fa00000006001e
:101500000800fa00881f780020079800310798002b
:101510000000eb00000f78002e0090001e04400039
:101520007c010700004c78001e0fe8002e009000a0
:101530001e04400077010700004c78001e0fe800f1
:101540002e0090001e04400072010700004c78003d
:101550001e0fe8002e0090000000e8001040780008
:101560000080fb00c800dd002e0090000080e80035
:10157000104078000080fb000080400010079800b9
:101580001e00900064004000100798009e0090002c
:101590003e009000808f500008003600be00900092
:1015a00011079800050037002e0090001e0440002f
:1015b00058010700004c78001e0fe8001e00900044
:1015c0009e007800808f5000f7ff39003e009000a9
:1015d0009e007800808f5000040031002e009000a3
:1015e0001e0040008040eb000148780010c0b300ae
:1015f0004f0478000080fa00000006000000fa00a6
:1016000080002000001188002222ef00300320001b
:10161000401188009560a80021e2a8002342a8009c
:1016200000b02000e057880000b02000d0578800ac
:1016300080b02000c057880080b02000b0578800dc
:10164000f05780000010a000f0578800f05780008d
:101650000090a000f0578800f05780000080a100a3
:10166000f0578800f05780000000a100f057880074
:101670000080fa00000006000200fa000040eb00c3
:10168000004f7800c0578000104f7800c05780008e
:101690000000e800c0578800c157800070c02000db
:1016a000808f500002003a0080b02000c0578800b0
:1016b000c1578000b0578000808f500003003a006f
:1016c000f05780000010a000f0578800f05780000d
:1016d0000000a100f05788001e4078000080fa004a
:1016e000000006000600fa00881f78001007980026
:1016f000210798000000eb00000f78000900370078
:10170000f0578000620060000000e0000a003a002c
:101710001e0090001e044000d7ff0700004c780018
:101720001e0fe8002e0090009e007800808f500071
:10173000f3ff390001003700000000001e007800b0
:101740004f0478000080fa00000006000200fa0052
:10175000004f78009580a900d05780001e4878007f
:10176000d05780000000e800d0578800d157800093
:1017700080b02000808f500002003a0000b02000ae
:10178000d0578800f05780000090a100f0578800e3
:10179000e1578000d0578000808f500003003a004e
:1017a000f05780000080a000f05788009580a800c6
:1017b0000080fa00000006000600fa0010079800fa
:1017c000210798000000eb00000f78000a003700a6
:1017d000f157800000102000008060000000e00051
:1017e0000a003a001e0090001e00400010407800e1
:1017f0001e0fe800d5ff07002e0090009e00780025
:10180000808f5000f2ff3900010037000000000017
:101810001e0078000080fa00000006000200fa00b6
:101820000000eb00000f7800f1578000001020004e
:10183000008060000000e000010032001e30a000c7
:10184000f157800000202000008060000000e000d0
:10185000010032001e40a000f057800061006000cf
:101860000000e000010032001e00a000f0578000e0
:10187000620060000000e000020032001e20a000b4
:10188000010037001e10a0001e0078000080fa0042
:10189000000006000200fa00000f7800c057800028
:1018a0009e00400070c02000808f5000080036006d
:1018b000c05780009e00400070c020000000ea0079
:1018c0000080400081b020006140780003003700b4
:1018d000c05780001e004000104078000080fa00d1
:1018e000000006000000fa00f05780006100600070
:1018f0000000e0000f003a00c1578000b0578000a0
:10190000808f500005003600c057800080007800ae
:10191000b05780000080500007003700c05780009b
:1019200080007800b057800000805000f00fb000b9
:10193000010037000000eb000080fa000000060004
:101940000000fa00f15780000010200000806000c5
:101950000000e0000f003a00e1578000d0578000ff
:10196000808f500005003600e0578000800078002e
:10197000d05780000080500007003700e0578000fb
:1019800080007800d0578000008050006800400040
:10199000010037000000eb000080fa0000000600a4
:1019a0000000fa00f05780000000d10061406000a4
:1019b0000080fb0000f0a7000000ea000000ea0041
:1019c0004f00de00004078000080fa0000000600b2
:1019d0000000fa00f05780004800de00614060001f
:1019e0000080fb0000f0a7000000ea000000ea0011
:1019f0004f00de00004078000080fa000000060082
:101a00000000fa00101180000080fa0000000600bb
:101a10000000fa00f0578000620060000000e00063
:101a2000020032000000eb000e003700b1578000ca
:101a3000c0578000808f500005003600b0578000ee
:101a400080007800c05780000080500005003700fb
:101a5000b057800080007800c057800000805000a0
:101a6000f00fb0000080fa00000006000000fa004d
:101a7000f05780000010a000f0578800f057800059
:101a80000000a100f0578800b0578000c0578800c0
:101a90000080fa00000006000000fa00802020000c
:101aa000801188003222ef0030032000c01188002e
:101ab00097c0a80031e2a8003342a800609d200032
:101ac000904e8800609d2000804e880050ad200020
:101ad000704e880050ad2000604e8800a04e8000ff
:101ae0000010a000a04e8800a04e80000090a00032
:101af000a04e8800a04e80000080a100a04e88006b
:101b0000a04e80000000a100a04e88000080fa00d6
:101b1000000006000200fa000040eb00004f7800d1
:101b2000704e8000104f7800704e80000000e8007a
:101b3000704e8800714e800050af2000808f5000a2
:101b400002003a0050ad2000704e8800714e8000b7
:101b5000604e8000808f500003003a00a04e80004d
:101b60000010a000a04e8800a04e80000000a10040
:101b7000a04e88001e4078000080fa000000060099
:101b80000600fa00881f78001007980021079800c7
:101b90000000eb00000f780009003700a04e800025
:101ba000620060000000e0000a003a001e009000a1
:101bb0001e044000d7ff0700004c78001e0fe8000d
:101bc0002e0090009e007800808f5000f3ff3900b7
:101bd00001003700000000001e0078004f0478006c
:101be0000080fa00000006000200fa00004f7800b2
:101bf00097e0a900804e80001e487800804e80004b
:101c00000000e800804e8800814e800050ad20002a
:101c1000808f500002003a00609d2000804e8800b6
:101c2000a04e80000090a100a04e8800914e800040
:101c3000804e8000808f500003003a00a04e80004c
:101c40000080a000a04e880097e0a8000080fa0065
:101c5000000006000600fa0010079800210798000f
:101c60000000eb00000f78000a003700a14e800052
:101c700000102000008060000000e0000a003a0030
:101c80001e0090001e004000104078001e0fe8006b
:101c9000d5ff07002e0090009e007800808f500036
:101ca000f2ff390001003700000000001e0078003c
:101cb0000080fa00000006000200fa000000eb00bd
:101cc000000f7800a14e800000102000008060000e
:101cd0000000e000010032001e30a000a14e800094
:101ce00000202000008060000000e00001003200c1
:101cf0001e40a000a04e8000610060000000e000d7
:101d0000010032001e00a000a04e800062006000b2
:101d10000000e000020032001e20a0000100370099
:101d20001e10a0001e0078000080fa0000000600cf
:101d30000200fa00000f7800704e80009e00400004
:101d400050af2000808f500008003600704e800099
:101d50009e00400050af20000000ea0000804000dc
:101d600051ad20006140780003003700704e8000c4
:101d70001e004000104078000080fa0000000600bd
:101d80000000fa00a04e8000610060000000e0004a
:101d90000f003a00714e8000604e8000808f50002e
:101da00005003600704e800080007800604e800094
:101db0000080500007003700704e800080007800df
:101dc000604e8000008050000002b000010037002b
:101dd0000000eb000080fa00000006000000fa009e
:101de000a14e800000102000008060000000e00094
:101df0000f003a00914e8000804e8000808f50008e
:101e000005003600904e800080007800804e8000f3
:101e10000080500007003700904e8000800078005e
:101e2000804e800000805000f00fb00001003700ad
:101e30000000eb000080fa00000006000000fa003d
:101e4000a04e80000000d100614060000080fb00d7
:101e500000f0a7000000ea000000ea004f00de00ea
:101e6000004078000080fa00000006000000fa0040
:101e7000a04e80004800de00614060000080fb0052
:101e800000f0a7000000ea000000ea004f00de00ba
:101e9000004078000080fa00000006000000fa0010
:101ea000901180000080fa00000006000000fa0097
:101eb000a04e8000620060000000e00002003200de
:101ec0000000eb000e003700614e8000704e800075
:101ed000808f500005003600604e80008000780042
:101ee000704e80000080500005003700604e80007a
:101ef00080007800704e8000008050000002b0002a
:101f00000080fa00000006000000fa00a04e8000e9
:101f10000010a000a04e8800a04e80000000a1008c
:101f2000a04e8800604e8000704e88000080fa004d
:101f3000000006000000fa000080200001c520001b
:101f4000110098000080200001c5200001087800e1
:101f500000802000a00090000110a0002100980047
:101f600000802000a00090000100a1002100980046
:101f7000008020008040eb0061409800700220004b
:101f80002010880000002800301088000822ef0090
:101f90008620a9009620a8000080fa000000060014
:101fa0000200fa0000802000e0409000014f78001d
:101fb0001e4078000080fa00000006000000fa00d1
:101fc0006040800066004000604088000ac8bf0092
:101fd0000040e9000ae8b7000ac8bf000004e000ba
:101fe00003003a0040002000404088000200370013
:101ff00010002000404088000080fa000000060029
:102000000200fa00000f78000642a800704080002d
:10201000200090000000e0000300320070408000cb
:10202000200090001e0878000828ef000080fa00c9
:10203000000006000800fa00000f78002147980011
:1020400022079800330798000080200020009000ad
:10205000610060000000e0000a003a00ae0190005c
:102060002e4190009e007800c0c520007700070038
:102070003e019000c1c5200010c0b3001f00070042
:10208000030037003e0090008000eb00010878005c
:102090000080fa00000006000800fa00000f780037
:1020a00021479800220798003307980000802000fd
:1020b00020009000610060000000e0000a003a008b
:1020c000ae0190002e4190009e00780060c5200077
:1020d000460007003e01900061c5200010c0b3001b
:1020e00006000700030037003e0090008000eb0070
:1020f000010878000080fa00000006000600fa00df
:10210000004f7800110798002207980000802000f7
:1021100020009000610060000000e0002e003a0006
:102120002e0090001100200001087800008020009f
:10213000100078009e0090001100980000802000a0
:10214000100078001e487800008020001000780001
:10215000ae00900021009800008020001000780060
:10216000e600400000802000010878000080200088
:102170009000780060c52000808f500003003a0076
:102180000080200001c520000108780000802000a8
:10219000a00090000110a100210098000080200004
:1021a000900090000080200010007800808f500088
:1021b00004003a0000802000a00090000100a00070
:1021c00021009800404080000000e00005003a0037
:1021d0008620a800030037002e0090008000eb004e
:1021e000010878000080fa00000006000800fa00ec
:1021f000000f7800110798004247980033079800b5
:102200003e00900000004000800078001e00780032
:10221000010878001e007800100078008000780027
:102220000100a0001e007800010878001e00780060
:10223000ce409000214098001e0078009e00900043
:10224000210098000080fa00000006000800fa0053
:10225000000f780011079800424798003307980054
:102260003e00900000004000800078001e007800d2
:10227000010878001e007800ce40900021409800b0
:102280001e0078009e009000210098000080fa0057
:10229000000006000000fa000080200020009000ee
:1022a0000000d100614060000080fb0000f0a7004a
:1022b0000000ea000000ea004f00de000040780065
:1022c0000080fa00000006000000fa0000802000f4
:1022d00020009000614060000080fb0000f0a7003b
:1022e0000000ea000000ea004f00de000040780035
:1022f0000080fa00000006000000fa0010c0b300e1
:102300002ee8b7000080fa00000006000000fa0086
:102310005e00070030000700470007000080fa0059
:10232000000006000000fa002ec8bf000004a20052
:102330000004e00025003a0091418000703e20003a
:10234000808f500004003e00904180000000e800b3
:1023500090418800030037008000eb00100020004f
:1023600057010700a1418000703e2000808f50007f
:1023700004003e00a04180000000e800a041880069
:10238000030037008000eb00200020004c01070014
:102390009141800020032000808f50000300360010
:1023a0008000eb001000200045010700a1418000e3
:1023b00020032000808f5000050036008000eb00d5
:1023c000200020003e01070001003700000000004f
:1023d0000080fa00000006000200fa00810c2000d4
:1023e000c0832000bffc0700000f78001e007800ab
:1023f0000000e0000e0032003228ef001100200043
:10240000100020002e01070080418000e30f5000e3
:1024100007003a000000000070fe07009e0f500009
:10242000fdff36009e007800c083200009fe0700f3
:102430000080fa00000006000200fa00810c200073
:1024400040902000cefd0700000f78001e007800ad
:102450000000e0000b0032003428ef0011002000e3
:1024600020002000160107000000000034fd0700d6
:102470009e0f5000fdff36009e007800c0832000b4
:10248000cdfc07000080fa00000006000000fa0002
:102490002e00070080418000e30f50000b00320047
:1024a000e40f500016003200e20f50001b003a000b
:1024b0000000eb00780107000004e0001b00320080
:1024c00030002000804188001d0037000000eb0034
:1024d0008b0107000004e0000200320040002000f1
:1024e0008041880020002000850107000004e000f2
:1024f00010003200200020008041880010003700ca
:10250000200020007e0107000004e0000b003200e4
:102510002000200080418800090037008000eb0087
:102520000000eb00e6000700050037000000000097
:102530000300370000000000010037000000000029
:10254000170007000080fa00000006000200fa00f1
:102550009241800010c0b300713e2000810f5100f5
:10256000010036000040eb00004f78001e4078006c
:102570000004e0000600320080418000e10f5000be
:1025800005003e0020002000804188000200370046
:1025900010002000804188000080fa000000060042
:1025a0000000fa0080418000e30f50000800320074
:1025b000e40f50000a003200e20f50000c003a0015
:1025c000110020000000eb00bd0007000c003700e8
:1025d000210020000000eb00b900070008003700d0
:1025e000310020000000eb00b500070004003700b8
:1025f0008000eb000000eb00b100070000000000cd
:102600000080fa00000006000000fa0063030700e3
:102610000600070000722800710020008dfd0700f1
:1026200035ff070039ff0700feff37000200fa0000
:102630008000eb000000eb00a10007008000eb0031
:10264000100020009e0007008000eb00200020000a
:102650009b00070000482800e101200069030700f3
:102660000000eb00000f780025003700110020006b
:102670000000eb00920007008000eb00100020003b
:102680008f0007008000eb00200020008c00070076
:1026900000a82100610020005a0307008000eb0021
:1026a0000000eb0086000700110020001000200051
:1026b000830007008000eb0020002000800007005e
:1026c00000a82100610020004e0307008000eb00fd
:1026d0000000eb007a0007008000eb0010002000f3
:1026e0007700070011002000200020007400070080
:1026f00000a8210061002000420307001e0fe8002f
:102700001e007800e90f5000d8ff34008000eb0075
:102710000000eb006a0007008000eb0010002000c2
:10272000670007008000eb00200020006400070025
:102730000080fa00000006000000fa005016800039
:10274000700060000000e00002003200c442a900f6
:1027500001003700c442a80010168000700060001d
:102760000000e00002003200c462a900010037004e
:10277000c462a800511680000002200000806000a2
:102780000000e00002003200cce2a90001003700a6
:10279000cce2a8000080fa00000006000200fa0067
:1027a0000000eb00000f7800070037001e007800e3
:1027b000b90007000004e000020032001e007800ab
:1027c000990007001e0fe8001e007800e20f50007d
:1027d000f6ff34000080fa00000006000400fa0052
:1027e0000040eb0010479800d04080000000e80057
:1027f000d0408800d1408000703e2000808f500083
:10280000030034001a28ef0010c0b30010479800ee
:102810000040eb0020479800e04080000000e80006
:10282000e0408800e140800030062000808f5000aa
:10283000030034001c28ef0010c0b30020479800ac
:102840000040eb00004f7800f04080000000e800fe
:10285000f0408800f0408000e90f50000300340091
:102860001e28ef0010c0b300004f78000040eb00be
:1028700030479800004180000000e80000418800d7
:1028800000418000e10f5000030034002028ef00d9
:1028900010c0b300304798001e4078000004e000ec
:1028a0000200320010c0b30018e8b7009dfe070018
:1028b000a90007000d0007000080fa0000000600d4
:1028c0000400fa00000f7800110798001e0078003d
:1028d0008000400080c62000008040009e009000e4
:1028e000010878000080fa00000006000000fa00ed
:1028f0005141800030062000808f500004003e00cf
:10290000504180000000e800504188000600370078
:102910002a28ef0028c8bf000004a2000080fb00a6
:102920000040780028e8b70061418000301f200097
:10293000808f500004003e00604180000000e800ed
:1029400060418800060037002c28ef0029c8bf002e
:102950000004a2000080fb000040780029e8b700d6
:102960000000eb00150007000004e0000200320048
:10297000c442a80001003700c442a9001000200092
:102980000e0007000004e00002003200c462a8004c
:1029900001003700c462a9002000200007000700e2
:1029a0000004e00002003200cce2a8000100370081
:1029b000cce2a9000080fa00000006000200fa0044
:1029c000000f78001e0078008000400080c62000c4
:1029d0000080400010007800e10f50000900320034
:1029e000e10f500005003900e20f500007003200ef
:1029f000e30f500007003200080037000040eb00f2
:102a00000700370010c0b3000500370029c8bf0019
:102a10000300370028c8bf00010037000040eb006a
:102a20000080fa00000006000200fa00000f7800a3
:102a30001e0078008000400080c62000008040001a
:102a4000100078008000e8001e00780000014000bf
:102a500080c6200000004100010878001e007800b8
:102a60008000400080c620000080400010007800f8
:102a7000e30f5000060036001e0078008000400082
:102a800080c62000008040008000eb000108780034
:102a90000080fa00000006000400fa001007980009
:102aa0001e0090008000400020c6200000804000f2
:102ab00090007800007d20000080680000f0a700f2
:102ac0000000ea000000e9004f00de00004f78003f
:102ad0001e4078000004e000060032001e00900056
:102ae0008000400020c62000008040008080eb0075
:102af000010878001e4078000080fa0000000600ff
:102b00000200fa00000f78001e00780080004000ec
:102b100020c620000080400010007800ea0f50001e
:102b2000090036001e0078008000400020c620000a
:102b30000080400010007800e10f400002003200e9
:102b400010002000010037000000eb00004078007a
:102b50000080fa00000006000000fa005016800015
:102b60007000600000f0a7000000ea000000e9002b
:102b70004f00de00800078000000eb001500070029
:102b8000101680007000600000f0a7000000ea004e
:102b90000000e9004f00de008000780010002000f7
:102ba0000c00070051168000000220000080600029
:102bb00000f0a7000000ea000000e9004f00de007e
:102bc0008000780020002000020007000080fa004a
:102bd000000006000400fa00000f780011079800ba
:102be0001e0090000000e00007003a001e00780080
:102bf0008000400020c62000008040008000eb00e4
:102c000001087800130037001e00780080004000a3
:102c100020c620000080400090007800f07c20005a
:102c2000808f50000b003e001e00780080004000a6
:102c300020c6200000804000100078008000e800de
:102c40001e0078000001400020c620000000410066
:102c5000010878000080fa00000006000000fa0079
:102c60004021ef00d0002000100a8800000a8000f8
:102c700000407800674060000080fb00c041880091
:102c80000080fa00000006000000fa002004800026
:102c9000620060000000e000010032008420a90012
:102ca0000080fa00000006000000fa00c041800029
:102cb00000407800674060000080fb006700600013
:102cc000020a800081ff2f00810061000100700076
:102cd000000a88000080fa00000006000000fa00e8
:102ce000010a800080ff2f0000806000000a880039
:102cf0000080fa00000006000000fa00200a8000b0
:102d00000080fa00000006000000fa0042c1a8009e
:102d10000080fa00000006000000fa00100a80009f
:102d20004600de00614060000080fb0000f0a7006c
:102d30000000ea000000ea004f00de0000407800da
:102d40000080fa00000006000000fa0042c1a9005d
:102d50000080fa00000006000000fa00000a80006f
:102d60004400de00614060000080fb0000f0a7002e
:102d70000000ea000000ea004f00de00004078009a
:102d80000080fa00000006000000fa00000a80003f
:102d90006800600000f0a7000000ea000000e90001
:102da0004f00de00004078000080fa0000000600be
:102db0000000fa000021ef0000fa2000100888004f
:102dc00000002800200888008460a9009460a80002
:102dd000e0c620008040eb00014878000080fa0047
:102de000000006000200fa00000f78009e00780044
:102df00011088800e0c620008040eb000148780000
:102e00000080fa00000006000000fa0010088000b0
:102e10000080fa00000006000200fa00000f7800af
:102e20009e00780001088800e0c620008040eb008a
:102e3000014878000080fa00000006000000fa0057
:102e4000000880000080fa00000006000000fa0080
:102e50000080fa00000006000000fa00e0c6200032
:102e60008040eb00014878009460a80005e1a800cc
:102e70000080fa00000006000000fa0005e1a90049
:102e80009460a9000080fa00000006000200fa0029
:102e9000e0c62000104f78001e4078000004e000db
:102ea00003003200e0c620008040eb0001487800bb
:102eb0001e4078000080fa00000006000000fa00c2
:102ec000f0c62000104078000080fb000080fa006f
:102ed000000006000000fa00f0c620008040eb0071
:102ee000014878000080fa00000006000000fa00a7
:102ef0000621ef0000c429006008880000002800b7
:102f00008008880084e0a90094e0a80000c72000a1
:102f10008040eb00014878000080fa0000000600c5
:102f20000200fa00000f78009e0078006108880017
:102f300000c720008040eb00014878000080fa00c4
:102f4000000006000000fa00600880000080fa001f
:102f5000000006000200fa00000f78009e007800d2
:102f60003108880000c720008040eb00014878004d
:102f70000080fa00000006000000fa00300880001f
:102f80000080fa00000006000000fa000080fa004d
:102f9000000006000000fa0000c720008040eb009f
:102fa0000148780094e0a80011e1a8000080fa0030
:102fb000000006000000fa0011e1a90094e0a90059
:102fc0000080fa00000006000200fa0000c720009e
:102fd000104f78001e4078000004e000030032002b
:102fe00000c720008040eb00014878001e407800b8
:102ff0000080fa00000006000000fa0010c7200060
:10300000104078000080fb000080fa0000000600fd
:103010000000fa0010c720008040eb000148780053
:103020000080fa00000006000000fa00c422ef0051
:1030300040002c0060168800300120000016880037
:1030400090b32e0040168800300020004003880016
:103050006a20ef00c622ef00ce22ef00f0e320004e
:1030600060198800113a8000f00b20000081600098
:10307000600420007105200023742000804978003e
:1030800081497800824978005136800000fe2f0087
:10309000008060003000b300503688003135800079
:1030a000f00f2e0000806000303588002135800050
:1030b00000fe2f0000806000b000b30020358800c3
:1030c00001368000f00f2e0080806000006020003c
:1030d00001007000003688001136800000fe2f00cd
:1030e000008060005000b30010368800713480000a
:1030f00000fe2f0000806000f000b30070348800f4
:103100003135800000fe2f00008060003000b300e9
:1031100030358800103a8000000178000260a0007d
:10312000600420007105200023742000804978008d
:1031300081497800824978000080fa00000006008a
:020000040000fa
:10314000300c0000200000000000000036080000e5
:103150000200000002000000ffff0000f60a00006d
:103160001201000000000000cc0900002a0100004c
:10317000000000006e0c00000200000000000000d3
:10318000700c000002000000000000003808000081
:103190000200000000000000500c000012000000bf
:1031a00000000000000800001800000000000000ff
:1031b000180800000a00000000000000080c0000d1
:1031c00028000000000000002208000006000000a7
:1031d00000000000720c000002000000000000006f
:1031e0003a08000002000000000000003c08000057
:1031f00090010000000000002e0800000400000004
:10320000000000003208000004000000020000007e
:10321000ffffff00ff000000620c0000060000003e
:1032200000000000680c0000060000000000000024
:103230002808000006000000000000000000000058
:020000040000fa
:103240000000fa0021068000f08f2f00008060004f
:103250000080a0002006880091058000f0ff280073
:103260000080600000c0a0009005880091058000eb
:10327000f08f2f00008060000080a0009005880083
:1032800021068000f0f82f00008060000050a000b0
:10329000200688005105800080ff2f00008060001c
:1032a0000000a0005005880041058000f0ff2800c4
:1032b0000080600000c0a00040058800610580001b
:1032c000f0f82f00008060000040a000600588003a
:1032d0006105800080ff2f00008060000000a000da
:1032e0006005880031058000f0ff28000080600044
:1032f00000c0a0003005880021058000f0ff2800f4
:103300000080600000c0a000200588000080fa0056
:10331000000006000200fa00bdf90700000f780067
:103320001e0078000000e00002003a000000eb0000
:103330000e0037003ac8bf000004a2000004e000fd
:10334000050032001e0078000000e00002003a0094
:103350000000eb00050037001100200020c720000e
:10336000e0f80700000f78001e0078000080fa00e7
:10337000000006000000fa0010c0b3003ae8b700f1
:103380000080fa00000006000000fa003a68ef0032
:103390000621ef000080fa00000006000000fa009d
:1033a00021ff0700a6ff070008000700baf9070081
:1033b000e0fa070091f80700ccfe070027fe07009f
:1033c0007bfe07000080fa00000006000000fa0003
:1033d0000001eb0060042000710520002374200030
:1033e00080497800814978008249780000002300f4
:1033f000203a88004827ef004e27ef000080fa00af
:0434000000000600c2
:020000040000fa
:10340400f03fb1000180b10006003500ee03090071
:1034140000000000403fb1000180b100fbff3d000f
:103424001000b000203fb000020035000080090009
:0834340000000000000006008a
:020000040000fa
:10343c00000f78009e007800b1418800ffff370034
:10344c000000fa0000c320008007780080c4200030
:0c345c00000188000080fa00000006005b
:020000040000fa
:020000040001f9
:0457f000ffff0000b7
:020000040000fa
:020000040001f9
:0457f400fffc0000b6
:020000040000fa
:020000040001f9
:0457f8009fff00000f
:020000040000fa
:020000040001f9
:0457fc007f3d0000ed
:00000001FF
